:060000000A128A11142906
:10000800F000030EF1000B1820200B191020710EC0
:100018008300F00E700E0900031383123D30810037
:100028000B11A00A2008283C031D2828A001F30A68
:10003800730800218800080003138312061C850A30
:0A004800861C85030B100800080059
:100200008A010A140F3982073F3406345B344F34B5
:1002100066346D347D3407347F346F3477347C3406
:1002200039345E34793471340317831688018901B7
:1002300003138316003085000614861481131514E9
:100240009514003087000030880003138312850165
:100250008601870188013A21312141214E21542113
:100260002F290313831616149614031383120608FA
:100270000B100800031383160F178F160F160F1499
:1002800008000313831681128111011581140114D2
:10029000031383123D3081000B1108008B178B165E
:1002A0000B118B150B100800031383120508F200C5
:0802B00072080021870008001C
:04400E00C430FF3F7C
:00000001FF
